:100000000C942E000C9483010C9483010C948301B6
:100010000C9483010C9483010C9483010C94830150
:100020000C9483010C9483010C9483010C94830140
:100030000C9483010C9483010C9483010C94830130
:100040000C9483010C9483010C9483010C94830120
:100050000C948301006000660003140011241FBE8D
:10006000CFE5D8E0DEBFCDBFE4E5F0E040E017C06B
:10007000B591A59135912591059107FD0CC09591FC
:100080008591EF01F92FE82F05900D92A217B30784
:10009000D9F7FE0104C01D92A217B307E1F7EB35B3
:1000A000F40731F70E9419010C946F01F894FFCF07
:1000B0006130710599F062307105E9F0672B39F50F
:1000C00042B321E030E0B90102C0660F771F8A9584
:1000D000E2F7CB018095842382BB089542B321E0EF
:1000E00030E0B90102C0660F771F8A95E2F7CB01B5
:1000F000842B82BB089542B321E030E0B90102C0F5
:10010000660F771F8A95E2F7CB01842782BB08959B
:1001100061E070E080EF90E00E94420161E070E0F9
:1001200080E090E00E94B50061E070E081E090E046
:100130000E94B50061E070E082E090E00E94B500AE
:1001400060E070E081E090E00E94580082E00E9450
:10015000D70088E20E94D7008CE00E94D7000E945E
:0A0160002F0186E00E94D7000895E9
:10016A006115710521F06130710579F0089541B387
:10017A0021E030E0B90102C0660F771F8A95E2F7E5
:10018A00CB018095842381BB089541B321E030E0FF
:10019A00B90102C0660F771F8A95E2F7CB01842B5B
:0401AA0081BB089578
:1001AE00CF93C82F909885B38F709C2F907F892BFB
:1001BE0085BB0E947A0185B3282F2F7030E1C39F33
:1001CE00C0011124822B85BB0E947A018FEF99EF1B
:1001DE0020E0815090402040E1F700C00000CF9118
:0201EE00089572
:1001F000CF93C82F909A85B38F709C2F907F892BB7
:1002000085BB0E947A0185B3282F2F7030E1C39FF0
:10021000C0011124822B85BB0E947A018FEF99EFD8
:1002200020E0815090402040E1F700C00000CF91D5
:0202300008952F
:100232000E94880063E070E081E090E00E9461012A
:1002420080E690E00E9452012FEF89E698E121506A
:0C02520080409040E1F700C00000ECCFBD
:10025E00909885B38F7085BB0E947A0185B38F709D
:10026E00806185BB0E947A018FE19EE40197F1F7D0
:06027E0000C0000008951D
:100284006115710521F06130710531F0089594B361
:100294008095892384BB089594B3892B84BB0895E6
:1002A400CF93DF93EC018881882331F021960E945B
:0E02B400F80089918111FBCFDF91CF91089561
:1002C2000024969587950794969587950794982F7D
:0C02D200802D862B80680E94D7000895C4
:1002DE00EC010E9488010E948701CE010E948901D3
:0602EE00CE010E94850113
:1002F400929A8FE19EE40197F1F700C00000929872
:0203040008955A
:040306000C94000053
:04030A000E945600F7
:02030E00089550
:0203100008954E
:0203120008954C
:0603140048454C4C4F006F
:00000001FF
